:100000000C9426040C9438040C9438040C94B10F0E
:100010000C94AE330C9438040C9438040C943804CB
:100020000C9438040C9438040C9438040C94772AFB
:100030000C9438040C9438040C9438040C94380450
:100040000C94902C0C9438040C947A260C943C2636
:100050000C9438040C9438040C9438040C94380430
:100060000C9438040C9438044507290F290F4F07C6
:100070005C0769077607290F7A07290F8807290F78
:1000800092079C07CD07290F290F290FA607B30751
:10009000C007ED0DFE0D1D0EFE0D210E340E270EB8
:1000A0002D0E490E4F0E5E0E750E990EA30EAF0E5D
:1000B000B90E6D217021752178217B217E2181214E
:1000C000842187218A218D219921992199219921A2
:1000D0009921992199219921932190219621E0211B
:1000E000E321E621E921EC21EF21F221F521D928B4
:1000F000DF28E228E528EA28F228FC286829682970
:1001000068290429072910291929682968296829D3
:1001100068296829682921292B2937293F2942295B
:100120004B2954295A29084AD73B3BCE016E84BC3F
:10013000BFFDC12F3D6C74319ABD56833DDA3D0041
:10014000C77F11BED9E4BB4C3E916BAAAABE00008A
:1001500000803F05A84CCDB2D44EB93836A9020C68
:1001600050B9918688083CA6AAAA2ABE0000008041
:100170003F003E0D0A002C4C696D3A002C52583A53
:10018000002C4275663A002C002C57506F733A00D1
:100190002C002C4D506F733A003C446F6F72003C42
:1001A000436865636B003C416C61726D003C486F55
:1001B0006D65003C486F6C64003C52756E003C49B4
:1001C000646C65005D0D0A005B302E396A2E32309A
:1001D0003136303331373A000D0A003D00244E00ED
:1001E0005D0D0A00205300204600205400204D38A9
:1001F00000204D3900204D3500204D3400204D3376
:1002000000204D3200204D3100204D300020473974
:100210003400204739330020473931002047393036
:10022000002047323000204732310020473139006A
:100230002047313800204731370020470047333806
:100240002E0047383000473300473200473100471F
:1002500030005B005D0D0A005B544C4F3A005D0DB1
:100260000A002C005B4739323A005D0D0A002C0071
:100270003A003330003238005B47005D0D0A003A27
:10028000002C005B5052423A00290D0A00206D619B
:10029000782074726176656C2C206D6D002061632E
:1002A00063656C2C206D6D2F7365635E3200206D6D
:1002B000617820726174652C206D6D2F6D696E0000
:1002C0002C20737465702F6D6D007A0079007800B2
:1002D0002028003D0024002028686F6D696E67208B
:1002E00070756C6C2D6F66662C206D6D290D0A0083
:1002F0002028686F6D696E67206465626F756E6334
:10030000652C206D736563290D0A2432373D00206A
:1003100028686F6D696E67207365656B2C206D6D45
:100320002F6D696E290D0A2432363D002028686F32
:100330006D696E6720666565642C206D6D2F6D6933
:100340006E290D0A2432353D00290D0A2432343D30
:10035000002028686F6D696E672064697220696E7D
:1003600076657274206D61736B3A002028686F6D3A
:10037000696E67206379636C652C20626F6F6C29EE
:100380000D0A2432333D00202868617264206C69B4
:100390006D6974732C20626F6F6C290D0A243232E0
:1003A0003D002028736F6674206C696D6974732C2E
:1003B00020626F6F6C290D0A2432313D00202872B3
:1003C00065706F727420696E636865732C20626F4C
:1003D0006F6C290D0A2432303D00202861726320A1
:1003E000746F6C6572616E63652C206D6D290D0AEA
:1003F0002431333D0020286A756E6374696F6E2066
:10040000646576696174696F6E2C206D6D290D0AC3
:100410002431323D00290D0A2431313D002028735A
:100420007461747573207265706F7274206D61737E
:100430006B3A00202870726F62652070696E2069C7
:100440006E766572742C20626F6F6C290D0A2431F0
:10045000303D0020286C696D69742070696E7320CE
:10046000696E766572742C20626F6F6C290D0A2498
:10047000363D0020287374657020656E61626C657E
:1004800020696E766572742C20626F6F6C290D0A7C
:1004900024353D00290D0A24343D0020286469726A
:1004A00020706F727420696E76657274206D61734E
:1004B0006B3A00290D0A24333D00202873746570BF
:1004C00020706F727420696E76657274206D61732E
:1004D0006B3A002028737465702069646C65206431
:1004E000656C61792C206D736563290D0A24323D9A
:1004F000002028737465702070756C73652C2075EE
:10050000736563290D0A24313D0024303D00242405
:10051000202876696577204772626C207365747451
:10052000696E6773290D0A24232028766965772070
:100530002320706172616D6574657273290D0A24E0
:100540004720287669657720706172736572207321
:1005500074617465290D0A2449202876696577201D
:100560006275696C6420696E666F290D0A244E20DD
:100570002876696577207374617274757020626C77
:100580006F636B73290D0A24783D76616C75652065
:100590002873617665204772626C20736574746994
:1005A0006E67290D0A244E783D6C696E65202873AC
:1005B000617665207374617274757020626C6F630C
:1005C0006B290D0A24432028636865636B206763E9
:1005D0006F6465206D6F6465290D0A245820286BAF
:1005E000696C6C20616C61726D206C6F636B290D9E
:1005F0000A2448202872756E20686F6D696E672026
:100600006379636C65290D0A7E20286379636C65C4
:10061000207374617274290D0A212028666565644F
:1006200020686F6C64290D0A3F202863757272651B
:100630006E7420737461747573290D0A6374726C1F
:100640002D7820287265736574204772626C290DBD
:100650000A000D0A4772626C20302E396A205B272F
:10066000242720666F722068656C705D0D0A005D3E
:100670000D0A00526573746F72696E672064656657
:1006800061756C74730050676D20456E640043683B
:1006900065636B20446F6F720044697361626C65BF
:1006A0006400456E61626C65640043617574696FD6
:1006B0006E3A20556E6C6F636B6564002724482783
:1006C0007C2724582720746F20756E6C6F636B0035
:1006D000526573657420746F20636F6E74696E75F4
:1006E00065005B000D0A00486F6D696E67206661EA
:1006F000696C0050726F6265206661696C004162CE
:100700006F727420647572696E67206379636C65BB
:1007100000536F6674206C696D697400486172647F
:10072000206C696D697400414C41524D3A20000DB6
:100730000A00496E76616C69642067636F646520A6
:1007400049443A00556E646566696E656420666565
:100750006564207261746500556E737570706F7298
:1007600074656420636F6D6D616E64004D6F6461CC
:100770006C2067726F75702076696F6C6174696F39
:100780006E004C696E65206F766572666C6F7700DF
:10079000486F6D696E67206E6F7420656E61626C64
:1007A000656400416C61726D206C6F636B004E6F0D
:1007B000742069646C6500454550524F4D20726548
:1007C0006164206661696C2E205573696E672064D0
:1007D000656661756C74730056616C7565203C20AC
:1007E0003320757365630053657474696E672064A4
:1007F000697361626C65640056616C7565203C20AC
:100800003000496E76616C69642073746174656D43
:10081000656E7400426164206E756D62657220665B
:100820006F726D61740045787065637465642063F0
:100830006F6D6D616E64206C6574746572006572B5
:10084000726F723A20006F6B0D0A000011241FBEF8
:10085000CFEFD8E0DEBFCDBF26E0A0E0B1E001C021
:100860001D92AE3CB207E1F70E94AF120C94613AC0
:100870000C940000439808953B9A0C943A048230FB
:1008800011F4439A08950C943A04CF93DF931F9286
:10089000CDB7DEB79091A305923049F089830E94CD
:1008A000462189810F90DF91CF910C943F040F90E6
:1008B000DF91CF910895F999FECF92BD81BD81E07E
:1008C0008FBB80B50895F894F999FECF92BD81BD94
:1008D00081E08FBB40B54627842F992787FD9095EF
:1008E000262F30E082239323892B39F06F3F19F0B4
:1008F00060BD84E006C084E104C0442321F060BDF3
:1009000084E28FBBF99A789408959F92AF92BF9238
:10091000CF92DF92EF92FF920F931F93CF93DF93CB
:100920008C017A016B01C40ED51EEB01912C5C0188
:10093000A61AB70ACE018A0D9B1DCC15DD0591F0D4
:10094000911009C0692D772767FD7095272F221F09
:100950002227221F01C021E06991922E960E0E944B
:100960006304E8CF692DC8018E0D9F1DDF91CF91E3
:100970001F910F91FF90EF90DF90CF90BF90AF90BD
:100980009F900C9463049F92AF92BF92CF92DF929C
:10099000EF92FF920F931F93CF93DF938B017A0116
:1009A0006C01C40ED51EEC01912C5B01A81AB90A8A
:1009B000C5018C0F9D1FCC15DD0591F00E945B04D5
:1009C000911009C0292D332727FD3095232F221F91
:1009D0002227221F01C021E0922E980E8993E8CF92
:1009E000C8018E0D9F1D0E945B0421E030E0981627
:1009F00011F020E030E0C901DF91CF911F910F91FC
:100A0000FF90EF90DF90CF90BF90AF909F900895B0
:100A10008FE3EAE2F5E0DF011D928A95E9F76DE4E4
:100A200075E080E00E943928811103C087E00C94B2
:100A30005721089566EA75E081E495E00C94D53578
:100A40002F923F924F925F926F927F928F929F92DE
:100A5000AF92BF92CF92DF92EF92FF920F931F93CC
:100A6000CF93DF93CDB7DEB7AB970FB6F894DEBF69
:100A70000FBECDBF98A38F8F89E3E9E6F5E0DF01D4
:100A80001D928A95E9F78AE0EAE2F5E0AAE6B5E088
:100A900001900D928A95E1F71D8E212C312CA12C0D
:100AA000B12C19A2512C1E8E66246394712C08E07F
:100AB000402E9924939485E0882E8D8DEF8DF8A19A
:100AC000E80FF11D0081002309F48AC29FEB900F0B
:100AD0009A3110F00C941B0F8F5F8D8FAE01475E23
:100AE0005F4FBE01635E7F4F8F8D98A10E9472178A
:100AF000882311F40C941D0FC98CDA8CEB8CFC8CC0
:100B0000C701B6010E94D5390E943D37162F70E00B
:100B100080E090E00E946B379B01AC01C701B601F9
:100B20000E94EF3520E030E048EC52E40E940739A3
:100B30000E946A390E943D37073421F00D3409F4D0
:100B400050C192C1183209F432C1E8F4143160F492
:100B5000113108F0D7C0143009F45AC008F48EC01F
:100B60001A30D9F10C94290F1C31B9F128F416313F
:100B700008F4F7C00C94290F1E3179F1163209F4EC
:100B80007DC00C94290F1D3309F40BC1A8F4153353
:100B900009F461C040F41B3209F4ECC0113309F4CC
:100BA000E9C00C94290F1C3310F00C94290F165334
:100BB0001093700589E000C11C3540F41A3508F027
:100BC000B0C0103509F49BC00C94290F1C3529F0D6
:100BD0001F3508F4BDC00C94290F6115710531F45F
:100BE000BE8DB1110C941F0FE1E0EE8F1C3199F016
:100BF00038F4143069F01A3009F0DBC082E02CC000
:100C0000153349F11C3559F11E3109F0D2C013C01A
:100C100090926905CEC06115710549F06A30710581
:100C200011F00C94290F24E02093690509C0F3E02A
:100C3000F093690505C06115710521F4809269057D
:100C400080E0BFC06A30710511F00C94290F36E0C6
:100C500030936905F5CF87E080936905AAC06115D7
:100C6000710549F06A30710511F00C94290F99E073
:100C700090936905E5CF40926905E2CFAE8DA11151
:100C80000C941F0FB2E0BE8F123089F028F41123AC
:100C900059F0113081F08FC0163281F0103579F1A2
:100CA000133009F088C007C010926A0584C0EE8D29
:100CB000E0936A0580C010936A057DC06E317105AE
:100CC000B1F048F46431710511F00C94290FF4E08F
:100CD000F0936A0512C06832710561F062337105E4
:100CE00011F00C94290F37E030936A0506C080920A
:100CF0006A0503C026E020936A0581E062C0409245
:100D00006A0559C0123129F0133139F010926E057D
:100D100002C090926E0582E04FC082E080936E0523
:100D20004BC06115710549F41A3519F410926D051F
:100D300002C090926D0583E044C06A30710511F0E5
:100D40000C94290F1A3511F40C94290F84E039C042
:100D50001D3519F490926B0502C010926B0585E069
:100D60002BC0143119F490926C0502C010926C05DE
:100D700086E022C08E8D81110C941F0F113331F447
:100D800010926F0588E093E09E8F1BC06A3071055A
:100D900011F00C94290F90926F0588E0A3E0AE8FBC
:100DA00010C0672B11F00C94290F8AE00AC087E06D
:100DB00003C080E001C081E0672B19F087E10C944B
:100DC0003C0FF30102C0EE0FFF1F8A95E2F7CF013F
:100DD0009F012A213B21232B09F443C085E10C9478
:100DE0003C0F672B59F7163018F4133058F017C022
:100DF000183010F40C94290F1A3000F11E3159F0FC
:100E00000C94290F123039F01E3129F0111120C035
:100E1000909271051DC082E08093710519C0143055
:100E200029F0153039F09092730506C082E0809366
:100E3000730502C0109273058CE00BC0193021F0CD
:100E400082E08093720502C0109272058DE001C0AD
:100E50008BE0930102C0220F331F8A95E2F7C9018C
:100E6000B8CFA82AB92A29CE802F992787FD909537
:100E7000A92FB92FFC01E654F109E531F10508F07D
:100E8000E8C7EC5CFF4F0C94413AC0927405D092D5
:100E90007505E0927605F092770580E07FC0C092FC
:100EA0007805D0927905E0927A05F0927B0539A118
:100EB000316039A381E072C0C0927C05D0927D057B
:100EC000E0927E05F0927F0589A1826089A382E08D
:100ED00065C0C0928005D0928105E0928205F092B3
:100EE000830599A1946099A383E058C01093840569
:100EF00084E054C0C701B6010E943837609385056D
:100F000070938605809387059093880585E046C099
:100F1000C0928905D0928A05E0928B05F0928C05EB
:100F200086E03CC0C0928D05D0928E05E0928F0580
:100F3000F092900587E032C0C0929105D092920560
:100F4000E0929305F092940588E028C0C09296053F
:100F5000D0929705E0929805F0929905A52DA16091
:100F60005A2E8AE01BC0C0929A05D0929B05E0924F
:100F70009C05F0929D05B52DB2605B2E8BE00EC0F6
:100F8000C0929E05D0929F05E092A005F092A10527
:100F9000E52DE4605E2E8CE001C089E08301082E1F
:100FA00002C0000F111F0A94E2F798012221332199
:100FB000232B09F046C721E633E002C0359527957B
:100FC0008A95E2F720FF09C020E030E0A901C701BF
:100FD000B6010E94C93687FD36C7202A312A6DCD59
:100FE000552029F03E8D311102C082E08E8F25FE02
:100FF0000EC08091850590918605A0918705B091DE
:10100000880580389649A849B1050CF01EC7809123
:101010006B05813031F4FE8DF230A1F520FE1FC743
:1010200031C080912B0581112DC020FE1BC0809105
:101030006C05813039F523E333E34BEC51E46091E7
:1010400074057091750580917605909177050E94E1
:1010500007396093740570937505809376059093B6
:10106000770510C08091380590913905A0913A0517
:10107000B0913B058093740590937505A093760518
:10108000B093770530FC10C0809134059091350500
:10109000A0913605B0913705809391059093920504
:1010A000A0939305B093940580916905813031F444
:1010B00026FC02C08CE1E0C6E89426F880916E051B
:1010C000882341F0813061F019A682E088A791E081
:1010D0009FA30BC022E029A731E038A71FA205C0BB
:1010E000A1E0A9A718A6B2E0BFA380916C0581304A
:1010F00021F0EE8DE33091F52AC0B6E9EB2EB5E094
:10110000FB2E00E010E0C52CD12CC601002E02C041
:10111000959587950A94E2F780FF10C023E333E3A7
:101120004BEC51E4D7016D917D918D919C910E9482
:101130000739F70160837183828393830F5F1F4FA9
:10114000F4E0EF0EF11C03301105F9F6D2CF8091D7
:101150006F05813019F424E0521279C68CE0EDE479
:10116000F5E0DE011D9601900D928A95E1F7B1FC44
:1011700009C0309169053F8F3230B9F0383009F439
:10118000B0C015C180917005873010F08DE174C634
:1011900090913005981769F3BE01635F7F4F0E94FD
:1011A0003928882309F465C6E4CF511002C08AE1CA
:1011B00063C6C10180759927892B09F47BCF6091A3
:1011C000890570918A0580918B0590918C050E940C
:1011D000D5390E943D376730C8F680918405843147
:1011E00029F0823009F035C627FC33C68FEA282261
:1011F000662319F061506F8F03C0909170059F8F27
:10120000BE016F5F7F4F8F8D0E943928882309F4BC
:1012100030C64090840560906505709066058090AA
:10122000670590906805DE0111967D01F6E9CF2EE5
:10123000F5E0DF2EA1E4AA2EA5E0BA2E00E010E032
:10124000E52DF0E0FEA3EDA38DA19EA1002E02C02E
:10125000959587950A94E2F780FF33C0F4E14F1229
:1012600026C0D50158962D913D914D915C915B978B
:101270006D917D918D919C910E94EF35F6012081B9
:101280003181428153810E94EF35D7016D937D9367
:101290008D939C9313970230A1F4A40193010E94B3
:1012A000EF35F70160837183828393830AC0F6016F
:1012B00080819181A281B381F70180839183A28390
:1012C000B3830F5F1F4FF4E0EF0EF11C24E0C20E5A
:1012D000D11C34E0A30EB11C0330110509F0B4CFCA
:1012E0000FC1552009F463CF6090650570906605C5
:1012F000809067059090680506E915E0E1E4CE2E40
:10130000E5E0DE2E5E018DE0A80EB11CE12CF12C93
:10131000A52DB0E0B8A3AF8F8F8D98A10E2C02C081
:10132000959587950A94E2F780FF26C0F501208104
:10133000318142815381D6016D917D918D919C9136
:101340000E94EF35F80120813181428153810E9452
:10135000EF35D8016D937D938D939C931397B2E0F5
:10136000EB1214C0A40193010E94EF35F8016083D1
:101370007183828393830AC0F601808D918DA28D43
:10138000B38DF80180839183A283B383FFEFEF1ABB
:10139000FF0A0C5F1F4F24E0C20ED11C34E0A30EE5
:1013A000B11C83E0E816F10409F0B6CFA8C09E8D09
:1013B000933059F4AF8DA53009F48FC0A73009F4EC
:1013C00099C0A33009F09BC080C0552099F340908C
:1013D0006D058090650590906605A0906705B090BA
:1013E000680571E4C72E75E0D72E06E915E03E01C9
:1013F000BDE06B0E711CE12CF12CE52DF0E0FEA39D
:10140000EDA38DA19EA10E2C02C0959587950A94FF
:10141000E2F780FD0BC0F60180819181A281B3814A
:10142000F80180839183A283B3833EC0FF8DF730A0
:10143000D9F1411028C0D60158962D913D914D917A
:101440005C915B97F30160817181828193810E943D
:10145000F035D8012D913D914D915C910E94F03570
:10146000F8016083718382839383F2E0EF121CC0E2
:10147000A50194010E94F035D8016D937D938D9361
:101480009C93139711C0F6012081318142815381D1
:10149000D8016D917D918D919C910E94F035F8015C
:1014A0006083718382839383FFEFEF1AFF0A24E046
:1014B000C20ED11C0C5F1F4F34E0630E711C83E021
:1014C000E816F10409F09DCF75CF511001C01E8EB2
:1014D000BE016F5F7F4F86E007C0511001C01E8EB6
:1014E000BE016F5F7F4F87E00E943928882309F48F
:1014F000C0C405C080916A05823008F0ACC41F8E5C
:1015000010916A05183041F4552009F4B3C19E8D3D
:10151000913009F0A2C48BC2AE8DA23009F0AAC1ED
:101520001123D9F020E030E0A90160917405709199
:10153000750580917605909177050E94C9368823BC
:1015400009F48DC4143028F4123058F4113029F005
:101550006EC2183008F44DC16AC2511068C21E8EA6
:101560008CC1552009F423CEFFA1EF2FF0E0FEA39C
:10157000EDA338A5232F30E03BA72AA781E090E018
:101580003C0108A402C0660C771C0A94E2F70FA085
:1015900002C0880F991F0A94E2F7682A792A852DDC
:1015A00090E086219721892B09F45BC4CF01880F35
:1015B000991F880F991FFC01E759FA4FDC01A65DBE
:1015C000BA4F57962D913D914D915C915A9765A5D3
:1015D00076A587A590A90E94EF356B017C018AA5AD
:1015E0009BA5880F991F880F991FFC01E759FA4F97
:1015F000DC01A65DBA4F57962D913D914D915C91BE
:101600005A9765A576A587A590A90E94EF354B014D
:101610005C0127FE40C0E89427F8209196053091A0
:1016200097054091980550919905609141057091F9
:10163000420580914305909144050E94C93681116D
:1016400020C120919A0530919B0540919C055091B5
:101650009D056091450570914605809147059091E3
:1016600048050E94C93681110CC120919E05309118
:101670009F054091A0055091A10560914905709189
:101680004A0580914B0590914C050E94C936811105
:10169000F8C081E2F1C3F9A14F2E512C64207520CE
:1016A000672809F4E0C321EF222280916C05813084
:1016B00009F45AC00AA51BA5000F111F000F111F26
:1016C00003591A4FD8011B962D913D914D915C9174
:1016D0001E97C501B4010E94EF352B013C01ADA05E
:1016E000BEA0AA0CBB1CAA0CBB1CF501E359FA4F07
:1016F0005F012385348545855685C701B6010E9463
:10170000EF35A30192010E942F186B017C01D801D3
:101710001B962D913D914D915C911E97F50163852E
:101720007485858596850E942F184B015C01609316
:101730008D0570938E0580938F05909390059B0186
:10174000AC01C701B6010E94EF356B017C01E89442
:10175000F7F82AE037ED43EA5BE3C701B6010E94E0
:10176000CC3818164CF163C188E7682E85E0782ED6
:1017700000E010E0C201002E02C0959587950A9402
:10178000E2F780FF10C023E333E34BEC51E4D301D5
:101790006D917D918D919C910E940739F301608339
:1017A0007183828393830F5F1F4FF4E06F0E711C70
:1017B00003301105F9F67ECF20E030E040E05FE332
:1017C000C701B6010E94CC3818160CF462CF2FE680
:1017D00032E143E85AE3C501B4010E9407399B0195
:1017E000AC01C701B6010E94CC3818160CF451CFD9
:1017F0001EC1552009F4DBCC209196053091970548
:10180000409198055091990560914105709142056C
:1018100080914305909144050E94C936811107C10A
:1018200020919A0530919B0540919C0550919D0512
:101830006091450570914605809147059091480556
:101840000E94C9368111F3C020919E0530919F05F9
:101850004091A0055091A1056091490570914A05FC
:1018600080914B0590914C050E94C936882309F45C
:1018700010CFDDC02E8D2111DAC0C1018E7D9C7F7D
:10188000D9C080916C058130B1F423E333E34BEC94
:1018900051E460918D0570918E0580918F05909136
:1018A00090050E94073960938D0570938E05809393
:1018B0008F059093900540908D0550908E05609017
:1018C0008F057090900520E030E040E850E4C301BF
:1018D000B2010E940739A30192010E9407392B012E
:1018E0003C01A7019601C701B6010E9407399B017F
:1018F000AC01C301B2010E94EF352B013C01A501EF
:101900009401C501B4010E9407399B01AC01C301D8
:10191000B2010E94EF352B013C0120E030E0A9012B
:101920000E94C93687FDA7C2C301B2010E94943943
:101930002B013C01A5019401C701B6010E942F189B
:101940009B01AC01C301B20190580E94D0362B011B
:101950003C0180916A05833021F477FA709477F81E
:10196000709480918D0590918E05A0918F05B09116
:10197000900589A39AA3ABA3BCA320E030E0A90102
:10198000BC01CD010E94C93687FF11C077FA70945F
:1019900077F8709489A19AA1ABA1BCA1B0588093AB
:1019A0008D0590938E05A0938F05B09390050DA1A2
:1019B0001EA1000F111F000F111F03591A4FA30181
:1019C0009201C501B4010E9407399B01AC01C70116
:1019D000B6010E94EF3520E030E040E05FE30E9476
:1019E0000739D8011B966D937D938D939C931E9719
:1019F0000AA51BA5000F111F000F111F03591A4F35
:101A0000A3019201C701B6010E9407399B01AC01F5
:101A1000C501B4010E94F03520E030E040E05FE312
:101A20000E940739F8016387748785879687C1010B
:101A30008E7D907E892B09F018C28091850590914A
:101A40008605A0918705B091880580933D05909308
:101A50003E05A0933F05B093400580916B058093B0
:101A60002B058091740590917505A0917605B09134
:101A700077058093380590933905A0933A05B09384
:101A80003B05C0909105D0909205E0909305F090B1
:101A90009405A701960160913405709135058091F8
:101AA0003605909137050E94C9368823C1F0809190
:101AB0003305882321F0B701A6010E94042A8091F2
:101AC000910590919205A0919305B0919405809312
:101AD000340590933505A0933605B0933705809172
:101AE000950580933C058091730590913305981777
:101AF00071F0409134055091350560913605709133
:101B000037050E94042A80917305809333058091E4
:101B1000720590913205981731F00E94450480912A
:101B200072058093320580916905813051F460918E
:101B3000890570918A0580918B0590918C050E9492
:101B4000371680916E0580932E0580916C058093E9
:101B50002C053E8D3330F9F480916F0580932F056D
:101B6000813089F480919E0590919F05A091A005F8
:101B7000B091A1058093650590936605A0936705D4
:101B8000B093680508C01092650510926605109222
:101B9000670510926805809170059091300598173F
:101BA00059F0809330058CE0FE013D96ADE4B5E040
:101BB00001900D928A95E1F780916D0580932D0536
:101BC0008091690590E0FC013297E830F10508F05A
:101BD0004BC0E75BFF4F0C94413ABE016F5F7F4FF4
:101BE0008F8D0E94ED26809130059F8D89133CC01A
:101BF0008CE0FE013196ADE4B5E01AC0AE8DAA23AB
:101C000049F020E040E050E060E87FEB86E995E0B5
:101C10000E94EA1220E040E050E060E87FEBCE0155
:101C200001960E94EA128CE0FE013196A1E4B5E033
:101C300001900D928A95E1F717C061E475E086E0A6
:101C400003C061E475E087E00E94ED260DC08CE0E2
:101C5000E6E9F5E0A9E5B5E0EBCF8CE0E9E5F5E0F4
:101C6000DF011D928A95E9F780916A0580932A0524
:101C7000883009F498C0BE8DB23009F094C090E06D
:101C80008830910508F086C0FC01EF5AFF4F0C9494
:101C9000413A20E040E050E060E87FEB0AC040912C
:101CA00038055091390560913A0570913B052091B6
:101CB0002B0586E995E00E94EA126CC0C0903805B9
:101CC000D0903905E0903A05F0903B0500918D05E4
:101CD00010918E0520918F053091900581E08F93B2
:101CE000E9A5EF93F8A5FF9315C0C0903805D090F3
:101CF0003905E0903A05F0903B0500918D05109173
:101D00008E0520918F05309190051F9289A58F93A4
:101D100098A59F938FA0A0902B0548E755E066E912
:101D200075E081E495E00E9438130F900F900F90BA
:101D300031C0409138055091390560913A05709154
:101D40003B05E12C0AC0409138055091390560915E
:101D50003A0570913B05EE24E39400E015C04091F4
:101D600038055091390560913A0570913B05E12C99
:101D70000AC0409138055091390560913A0570913B
:101D80003B05EE24E39401E020912B0586E995E0E4
:101D90000E94A9168CE0E6E9F5E0A1E4B5E0019027
:101DA0000D928A95E1F78091710580933105882322
:101DB00009F45DC00E944621909131058091A305F0
:101DC000913069F48230A1F19FB7F89480910101BC
:101DD0008860809301019FBF0E94951F29C091E0F8
:101DE00090932A0510922E0510922D0510922B0526
:101DF0001092300510923305109232058230A9F00E
:101E0000BE01635F7F4F80E00E943928882389F1FB
:101E10008CE0FE013D96ADE4B5E001900D928A950F
:101E2000E1F70E949F290E943A0487E00E94CF2197
:101E3000109231051CC081E01FC082E01DC088E106
:101E40001BC089E119C084E017C08BE115C085E291
:101E500013C084E111C08EE10FC08FE10DC086E197
:101E60000BC080E209C083E207C084E205C080E0C5
:101E700003C087E001C082E2AB960FB6F894DEBFE4
:101E80000FBECDBFDF91CF911F910F91FF90EF90CB
:101E9000DF90CF90BF90AF909F908F907F906F908A
:101EA0005F904F903F902F900895EBE6F0E0808197
:101EB000897E8083E8E6F0E080818E7F80830895CC
:101EC00084B1897E84B985B1866185B98091BE0669
:101ED00083FF0BC080916B00866180936B008091C3
:101EE000680081608093680008950C94550FCF922C
:101EF000DF92FF920F931F93CF93DF931F92CDB783
:101F0000DEB793B196718091BE0686FD02C086E170
:101F100098279923D9F0C12CD12CF12C01E010E0A5
:101F20008C2D99830E9495299981892339F09801F4
:101F30000C2C01C0220F0A94EAF7F22A8FEFC81A7C
:101F4000D80AE3E0CE16D10459F701C0F12C8F2D49
:101F50000F90DF91CF911F910F91FF90DF90CF9065
:101F600008951F920F920FB60F9211242F933F9353
:101F70004F935F936F937F938F939F93AF93BF9391
:101F8000EF93FF938091A305813071F08091000160
:101F900081110AC00E9447179FB7F89480910001F1
:101FA0008360809300019FBFFF91EF91BF91AF913C
:101FB0009F918F917F916F915F914F913F912F9161
:101FC0000F900FBE0F901F9018952F923F924F9237
:101FD0005F926F927F928F929F92AF92BF92CF92B9
:101FE000DF92EF92FF920F931F93CF93DF93CDB7C2
:101FF000DEB76D970FB6F894DEBF0FBECDBF782E5B
:102000008091A20581112AC245EA842E46E0942ED1
:102010009E01235F3F4F590100E010E0C12CD12CFD
:102020007601872D90E0998B888B602E802F0E94FF
:102030008129D5018C93B2E00B1751F080E00E940A
:102040008129582E81E00E9481298529F50180830C
:102050008889998902C0959587956A94E2F780FFEF
:102060001DC020E030E040EC5FEBD4016D917D912C
:102070008D919C910E940739362E472E582E692E3D
:10208000262F372F482F592FC701B6010E94CC3871
:10209000181624F0C32CD42CE52CF62C0F5F1F4F00
:1020A000BFEFAB1ABB0AE4E08E0E911C03301105A2
:1020B00009F0BBCF8090C4069090C506A090C606DC
:1020C000B090C70634E0332E01E02224239466EA60
:1020D00075E0CE0101960E94D5354090BF06512C87
:1020E000FE01319626EA35E03B8B2A8B80E090E0BA
:1020F000612C10E0B701A601705828893989082E93
:1021000002C0359527950A94E2F720FF28C0639412
:10211000AA89BB891D921D921D921C921397920150
:10212000082E02C0359527950A94E2F720FF03C0D8
:10213000002319F007C0002329F0C082D182E28277
:10214000F38204C040835183628373832DE030E0C7
:102150002C0F3D1F280F391FD9012C91122B0196EE
:1021600034962A893B892C5F3F4F3B8B2A8B8330E7
:10217000910519F6662D70E080E090E00E946937C5
:102180000E9494399B01AC01C501B4010E9407393A
:10219000AB01BC011093BF054A8F5B8F6C8F7D8FA5
:1021A0000E94A61D20E04A8D5B8D6C8D7D8DCE0139
:1021B00001960E94C7190E94522D0E942C2A0023CA
:1021C000E9F00E94770FFE013D9620E030E090E0BC
:1021D0006191462F412359F0AC01022E02C0559562
:1021E00047950A94E2F740FF02C0609516232F5FDF
:1021F0003F4F2330310561F71093BF050E94522DE8
:10220000809101018473C1F080910101807329F0F4
:102210000E9447170E94951F21C101111AC10E94F7
:10222000770F8721A9F79FB7F894809101018B7FE1
:10223000809301019FBF04C0812F8C7109F0BFCF33
:102240000E94E22C0E9470198091C8069091C906E4
:102250000E9424180225C9F020E030E040EA50E452
:102260006091CA067091CB068091CC069091CD0604
:102270000E9407396B017C018090C0069090C106D6
:10228000A090C206B090C30610C0C090CA06D090FD
:10229000CB06E090CC06F090CD068090C4069090DE
:1022A000C506A090C606B090C7063A9409F00FCFB5
:1022B0002090BF06312C8091CA069091CB06A09148
:1022C000CC06B091CD068A8B9B8BAC8BBD8BB05866
:1022D0008E8B9F8BA88FB98F81E8A82E86E0B82EB1
:1022E00096EA892E95E0992E00E010E022E0422E39
:1022F000512C612C712C88899989002E02C09595EA
:1023000087950A94E2F780FF95C0C101002E02C0B4
:10231000959587950A94E2F7D50180FF12C09496AF
:102320002D913D914D915C9197976A897B898C891C
:102330009D890E94F035F5012081318142815381D0
:1023400008C02D913D914D915C916E897F89888D5A
:10235000998D0E9407390E94D7386B017C010111C9
:102360002DC06091AA057091AB058091AC0590914C
:10237000AD052091A6053091A7054091A805509183
:10238000A905621B730B840B950BA30192010E949C
:10239000223AD701C601821B930BA40BB50B809385
:1023A000A6059093A705A093A805B093A905D7010A
:1023B000C601820F931FA41FB51F2EC00130A9F5BF
:1023C0006091A6057091A7058091A8059091A90537
:1023D0002091AA053091AB054091AC055091AD0517
:1023E000620F731F841F951FA30192010E94223A5E
:1023F000DA01C9018C199D09AE09BF098093A605B0
:102400009093A705A093A805B093A905DA01C90187
:102410008C0D9D1DAE1DBF1D8093AA059093AB052D
:10242000A093AC05B093AD0505C0F401C082D18284
:10243000E282F3820F5F1F4FF4E08F0E911C24E0C5
:10244000A20EB11C0330110509F055CF0E94A61D44
:1024500005C08091010182FFE6CEDACE6D960FB6FF
:10246000F894DEBF0FBECDBFDF91CF911F910F91CA
:10247000FF90EF90DF90CF90BF90AF909F908F90A4
:102480007F906F905F904F903F902F900895BF92F4
:10249000CF92DF92EF92FF920F931F93CF93DF9330
:1024A0008C01C5EAD6E0BB24B394F801C190D19069
:1024B000E190F1908F0120E030E0A901C701B60161
:1024C0000E94CC3818164CF0288139814A815B81F2
:1024D000C701B6010E94C93687FDB092A50580915B
:1024E000A505882361F18091A3058830A9F00E9499
:1024F00047179FB7F8948091000185608093000191
:102500009FBFDF91CF911F910F91FF90EF90DF90D0
:10251000CF90BF900C94951F9FB7F89480910101C4
:102520008860809301019FBF0E94951F8091A20542
:1025300081110BC08091A3058111F6CFD8CF2496CD
:10254000F6E0C13BDF0709F0B0CFDF91CF911F91DB
:102550000F91FF90EF90DF90CF90BF9008950E9471
:102560000A260E9474290E940E2D0E949D338EE13E
:10257000E2EAF5E0DF011D928A95E9F781E08093B8
:10258000A20578948091BE0684FF03C081E0809309
:10259000A3050E94D8260E9408050E94A5290E9432
:1025A0003C040E94600F0E94611F0E9470190E94EB
:1025B000E22C0E94A61D0E941A051092A2051092FC
:1025C0000101109200011092A4051092A5050E942D
:1025D000C420DFCFEF92FF921F93CF93DF9300D001
:1025E00000D0CDB7DEB77C01122F8091BE0685FFEB
:1025F0000BC0C70149835A836B837C830E944712B7
:102600007C816B815A8149818091A305823031F1AF
:1026100049835A836B837C830E94951F8091A20516
:1026200081111CC00E94BF1949815A816B817C8134
:10263000882339F00E94BB2049815A816B817C81BB
:10264000E7CF212FC7010F900F900F900F90DF91D0
:10265000CF911F91FF90EF900C94C7190F900F909E
:102660000F900F90DF91CF911F91FF90EF90089501
:102670002F923F924F925F926F927F928F929F9292
:10268000AF92BF92CF92DF92EF92FF920F931F9380
:10269000CF93DF93CDB7DEB7E7970FB6F894DEBFE1
:1026A0000FBECDBF9C8B8B8B1B013A0109871A870C
:1026B0002B873C87AF8A2D961FAD2D972E962FAD79
:1026C0002E97298B2F963FAD2F973D8B84E0889EC8
:1026D000A00111245A834983AB89BC89A40FB51F7B
:1026E000B98FA88F460D571D5B8F4A8FFA018080E6
:1026F0009180A280B3802D913D914D915C91C50157
:10270000B4010E94F0356C8F7D8F8E8F9F8FF4E027
:102710001F9F800111242B893C89200F311F39A371
:1027200028A3A301400F511F5BA34AA3DA014D90D8
:102730005D906D907C90F9012081318142815381BF
:10274000C301B2010E94F0356CA37DA38EA39FA3A9
:10275000A501940150582D873E874F87588BD30190
:10276000C201B0588D839E83AF83B887E981FA8117
:10277000E20DF31D2C8D3D8D4E8D5F8D608171813D
:10278000828193810E94EF352B013C01F101E00F22
:10279000F11F2CA13DA14EA15FA1608171818281B9
:1027A00093810E94EF354B015C01A30192016D857D
:1027B0007E858F8598890E94073969837A838B8308
:1027C0009C83A50194016D817E818F8198850E94F3
:1027D00007399B01AC0169817A818B819C810E94C0
:1027E000F03569837A838B839C83A50194016D8581
:1027F0007E858F8598890E9407394B015C01A30172
:1028000092016D817E818F8198850E9407399B019D
:10281000AC01C501B4010E94EF3529813A814B8199
:102820005C810E9463362B013C019D89992399F0BC
:102830002DEB37E346E055EBC301B2010E94CC38E3
:1028400087FD1DC02BED3FE049EC50E4C301B20110
:102850000E94EF3512C02DEB37E346E055E3C3018C
:10286000B2010E94C936181654F02BED3FE049EC36
:1028700050E4C301B2010E94F0352B013C0180906D
:10288000BA069090BB06A090BC06B090BD06298504
:102890003A854B855C85CA01B9010E94F035A501D6
:1028A00094010E94EF359B01AC01C501B4010E9467
:1028B00007390E9494394B015C0120E030E040E090
:1028C0005FE3C301B2010E94073929853A854B8530
:1028D0005C850E9407399F77A50194010E94D0363C
:1028E0000E94A6370E943D377E8B6D8BDB01AB2BA0
:1028F00009F486C14B01A12CB12CBF89BB2361F027
:10290000C501B4010E9469379B01AC01C701B60142
:102910000E9407396B017C01C501B4010E9469372F
:102920004B015C019B01AC01C301B2010E94D03696
:1029300069877A878B879C87F989E4E0FE9FC001CD
:1029400011242B893C89280F391F3A8B298BF101DF
:10295000E80FF91FD9012D913D914D915C91608156
:102960007181828193810E94EF35A50194010E94BB
:10297000D0366CAB7DAB8EAB9FAB29853A854B8552
:102980005C85CA01B9010E9407399B01AC0160E076
:1029900070E080E090E40E94EF354B015C012BEA8F
:1029A0003AEA4AE25EE369857A858B859C850E94D6
:1029B00007392B013C0120E030E040E850E4C5013C
:1029C000B4010E94F0359B01AC01C301B2010E9429
:1029D000073968A779A78AA79BA720E030E040E0E5
:1029E0005FE3C501B4010E9407396CA77DA78EA7DC
:1029F0009FA7198201E010E0ED89FE890E171F07DD
:102A000009F4FEC0B981BC3008F04AC02CA53DA530
:102A10004EA55FA56D817E818F8198850E940739C3
:102A20004B015C0128A539A54AA55BA56D857E856E
:102A30008F8598890E940739A50194010E94F0357D
:102A4000B62EA72E982E892E2CA53DA54EA55FA5A6
:102A50006D857E858F8598890E9407392B013C0101
:102A600028A539A54AA55BA56D817E818F819885B2
:102A70000E9407399B01AC01C301B2010E94EF35EE
:102A80006D877E878F87988BE981EF5FE9838B2D38
:102A90009A2DA92DB82D8D839E83AF83B8876EC0E4
:102AA000B80180E090E00E94693729853A854B851E
:102AB0005C850E9407394B015C010E94CD366D8315
:102AC0007E838F839887C501B4010E948A394B01A8
:102AD0005C01EA8DFB8D80819181A281B3819C0193
:102AE000AD01505829833A834B835C83AAA1BBA1D3
:102AF0008D919D910D90BC91A02D88AB99ABAAAB07
:102B0000BBAB2D813E814F81588569817A818B8154
:102B10009C810E9407392B013C01A501940168A901
:102B200079A98AA99BA90E9407399B01AC01C3011D
:102B3000B2010E94F0356D877E878F87988BA50143
:102B4000940169817A818B819C810E9407394B01B4
:102B50005C012D813E814F81588568A979A98AA998
:102B60009BA90E9407399B01AC01C501B4010E94D9
:102B7000EF356D837E838F83988719822D853E85FF
:102B80004F8558896C8D7D8D8E8D9F8D0E94F0357F
:102B9000E88DF98D60837183828393832D813E81DB
:102BA0004F8158856CA17DA18EA19FA10E94F03517
:102BB000A8A1B9A16D937D938D939C9313972CA994
:102BC0003DA94EA95FA9E989FA8960817181828155
:102BD00093810E94F035A989BA896D937D938D9375
:102BE0009C9313972F89B701A6018B899C890E941A
:102BF000EA128091A205811121C00F5F1F4FFCCE08
:102C00002F89B701A601C101E7960FB6F894DEBF80
:102C10000FBECDBFDF91CF911F910F91FF90EF902D
:102C2000DF90CF90BF90AF909F908F907F906F90EC
:102C30005F904F903F902F900C94EA12E7960FB65A
:102C4000F894DEBF0FBECDBFDF91CF911F910F91E2
:102C5000FF90EF90DF90CF90BF90AF909F908F90BC
:102C60007F906F905F904F903F902F9008958F923C
:102C70009F92AF92BF92CF92DF92EF92FF924B0161
:102C80005C018091A305823009F447C020E030E068
:102C900040EA51E4C501B4010E9407390E94A637F9
:102CA0000E943D376B017C010E94462120E030E00C
:102CB0004AE754E4C501B4010E9407394B015C01A5
:102CC00082E38C9DB0018D9D700D112480E090E019
:102CD0000E9469379B01AC01C501B4010E94EF3528
:102CE0000E94A6370E943D37CB010E942418C114D0
:102CF000D10499F00E94951F21E0C21AD108809159
:102D0000A20581110AC08FEF90E722E08150904028
:102D10002040E1F700C00000EACFFF90EF90DF9085
:102D2000CF90BF90AF909F908F9008950E94550FC5
:102D300084E00E94E50F83E00E94E50F0E94951F4A
:102D40008091A205811104C00E941A050C94600FA5
:102D50000895CF92DF92EF920F93CF93DF9300D03D
:102D600000D01F92CDB7DEB76C018091A3058230F1
:102D700009F481C02D8349835A836B837C830E942D
:102D800046211092BE05802F0E94641F0E94761F6C
:102D90002D8149815A816B817C818823A1F09FB765
:102DA000F894809100018061809300019FBF2D8382
:102DB00049835A836B837C830E94951F7C816B813E
:102DC0005A8149812D818091A205811154C0C6018B
:102DD0000E94EA1281E0809302019FB7F8948091EB
:102DE00001018260809301019FBF0E94951F809125
:102DF000A205811140C08091A3058111F6CF809179
:102E000002018130A9F4EE2051F08CE0E6EAF5E011
:102E1000A2EBB5E001900D928A95E1F70CC09FB747
:102E2000F894809100018061809300019FBF03C0EE
:102E300081E08093BE05109202010E94951F80914F
:102E4000A205811118C00E94E22C0E9470190E94F4
:102E5000A61D66EA75E0C6010E94D5350F900F9059
:102E60000F900F900F90DF91CF910F91EF90DF9027
:102E7000CF900C9467230F900F900F900F900F90AE
:102E8000DF91CF910F91EF90DF90CF9008958091D7
:102E9000010184FD26C09FB7F894809101018061F3
:102EA000809301019FBF0E949F290E943A04809154
:102EB000A305982F9C7021F49091A405913089F47A
:102EC0009FB7843029F4F89480910001806204C097
:102ED000F894809100018860809300019FBF0C945A
:102EE0004C2A08956F927F928F929F92AF92BF92D9
:102EF000CF92DF92EF92FF920F931F93CF93DF93C6
:102F00007C018B016A01FB018081F701E80FF11D53
:102F10002081EF012D3229F42296218166246394C9
:102F200007C02B3211F0219602C022962181612C1C
:102F3000A12CB12C712C60E070E0CB01FE0130EDD2
:102F4000932E920E29E02915C8F0B39428E02B1592
:102F500088F0A1107A94A5E0B0E09B01AC010E943A
:102F6000473A660F771F881F991F690D711D811DD4
:102F7000911D0BC0A11009C0739407C02EEF9212CF
:102F800007C0A11005C0AA24A39421962081D6CF02
:102F9000BB2009F449C00E9469374B015C0120E065
:102FA00030E0A9010E94C936882361F18FEF7816BD
:102FB0006CF42AE037ED43E25CE3C501B4010E9402
:102FC00007394B015C0173947394F0CF78120BC0F6
:102FD0002DEC3CEC4CEC5DE3C501B4010E940739DB
:102FE0004B015C010FC0772069F020E030E040E247
:102FF00051E4C501B4010E9407394B015C017A9488
:1030000017149CF3662021F0B7FAB094B7F8B09487
:10301000F60180829182A282B382CE19DF09C1506B
:10302000F801C08381E001C080E0DF91CF911F9162
:103030000F91FF90EF90DF90CF90BF90AF909F9057
:103040008F907F906F900895009741F0EFE9FFE037
:103050003197F1F700C000000197F6CF08958F92E5
:103060009F92AF92BF92CF92DF92EF92FF9269014F
:103070007A019B01AC010E9407394B015C01A70159
:103080009601C701B6010E9407399B01AC01C50139
:10309000B4010E94F035FF90EF90DF90CF90BF9089
:1030A000AF909F908F900C9494394F925F926F9253
:1030B0007F928F929F92AF92BF92CF92DF92EF92C8
:1030C000FF920F931F93CF93DF9310912101111162
:1030D00001C012E1115000911F01101709F4EFC057
:1030E00089E2189FE0011124CD5DDE4F8D889E8816
:1030F000AF88B88C69A17AA18BA19CA19B01AC017E
:103100000E94F0352DA13EA14FA158A50E9407397C
:103110006B017C019B01AC01B401C5010E94C93661
:1031200087FF02C064017501A601B701498B5A8B64
:103130006B8B7C8B111101C012E177247A94710E94
:10314000701619F029E2622E27C08091220108131F
:1031500051C00E94302D4EC0679C800111240D5D2E
:103160001E4F711002C092E1792E7A948091220153
:10317000781202C00E94302DF801C588D688E788F1
:10318000F08CA701960161897289838994890E94D4
:10319000C936811106C0E80180911F017812DCCF89
:1031A00029C0F80161A172A183A194A19B01AC0186
:1031B0000E94F035F80125A136A147A150A50E9433
:1031C000073929893A894B895C890E94F0354B017E
:1031D0005C01A70196010E94C936F80187FF05C06E
:1031E000818A928AA38AB48AD6CFC18AD28AE38A94
:1031F000F48AD1CF60901F01F9E26F9E8001112403
:103200000D5D1E4F77247394760C82E1781201C015
:10321000712C5090210189E2482E751409F44DC09B
:10322000479CE0011124CD5DDE4FF8018188928832
:10323000A388B488C988DA88EB88FC88A70196013E
:10324000C501B4010E94C93687FF23C0F80161A1FE
:1032500072A183A194A19B01AC010E94F035F801F9
:1032600025A136A147A150A50E9407399B01AC01B9
:10327000C501B4010E94F0354B015C01A701960124
:103280000E94C93687FF05C0898A9A8AAB8ABC8AA0
:10329000672C2D893E894F89588D69897A898B8958
:1032A0009C890E94C936811101C0672C7394F2E198
:1032B0007F1201C0712C8E01B0CF60921F01DF918F
:1032C000CF911F910F91FF90EF90DF90CF90BF9023
:1032D000AF909F908F907F906F905F904F900895E8
:1032E0008CE1E3E0F1E0DF011D928A95E9F71092AD
:1032F00022011092210181E08093200110921F0190
:1033000008959091220180912101891769F081E04F
:10331000890F823109F480E020911F01921302C0CD
:1033200080931F0180932201089580912201909142
:103330002101981739F029E2829FC00111248D5D87
:103340009E4F089580E090E00895E0912201EF5FA4
:10335000E23109F4E0E080912101E81761F089E2AF
:10336000E89FF0011124ED5DFE4F61897289838928
:1033700094890C94943960E070E0CB01089581E069
:103380002091220190912001291380E008952F922D
:103390003F924F925F926F927F928F929F92AF92E5
:1033A000BF92CF92DF92EF92FF920F931F93CF9332
:1033B000DF93CDB7DEB7AF970FB6F894DEBF0FBE81
:1033C000CDBF9CA38BA3142F052F6B8F7C8F28A7B9
:1033D0008091210129E2829F10011124A1014D5DFC
:1033E0005E4F1A01FA01158616861786108A15A2F5
:1033F00016A217A210A6108289E996E7A6E9BEE7F1
:1034000081A392A3A3A3B4A3209181063091820645
:103410004091830650918406EBA1FCA160817181EB
:10342000828193810E9407390E94D7382B013C0189
:103430006D877E878F87988B2091850630918606D1
:103440004091870650918806EBA1FCA164817581AB
:10345000868197810E9407390E94D7384B015C0111
:10346000698B7A8B8B8B9C8B8091030190910401EB
:10347000A0910501B0910601B301A201481B590BAF
:103480006A0B7B0BC0900701D0900801E090090106
:10349000F0900A01D501C4018C199D09AE09BF093C
:1034A000840F951FA61FB71FB7FF07C0B095A09543
:1034B000909581959F4FAF4FBF4FF10181839283CC
:1034C000A383B483C818D908EA08FB08C40ED51E24
:1034D000E61EF71EF7FE08C0F094E094D094C09466
:1034E000C11CD11CE11CF11CF101C582D682E7820E
:1034F000F08621E836E03AA329A3AE014F5F5F4F83
:103500005FA34EA318A21F8E1D8EF101458556851F
:1035100067857089EF8DF8A1E20DF31D818192819D
:10352000A381B48184179507A607B70710F4DB01C0
:10353000CA01F10185879687A787B08BFD8DF111B0
:1035400021C08091030190910401A0910501B091E7
:103550000601A3019201281B390B4A0B5B0BCA0120
:10356000B901C0900701D0900801E0900901F090E6
:103570000A01A50194012C193D094E095F09690151
:103580007A011FC0FD8DF13009F580910301909102
:103590000401A0910501B0910601A3019201281B2D
:1035A000390B4A0B5B0BCA01B901C0900701D090DF
:1035B0000801E0900901F0900A01C818D908EA084A
:1035C000FB086C0D7D1D8E1D9F1D17C0EDE0F0E00A
:1035D000EC0FFD1F2F8D38A1E20FF31F6081718169
:1035E00082819381F901ED5FFE4FC080D180E2803E
:1035F000F3806C197D098E099F090E946B37E9A140
:10360000FAA120813181428153810E94D0366B0121
:103610007C01EEA1FFA16193719381939193FFA32C
:10362000EEA320E030E0A9010E94C93687FF0AC05E
:10363000F10190818D8D9FA70E948B299FA5892BD9
:10364000F1018083A7019601C701B6010E940739E5
:10365000F10125A136A147A150A50E94F035F10145
:1036600065A376A387A390A7FD8DFF5FFD8FF33041
:1036700009F442C05D8D523091F520918906309158
:103680008A0640918B0650918C06EBA1FCA16085C7
:103690007185828593850E9407390E94D7386D8B8A
:1036A0007E8B8F8B988FC0900B01D0900C01E09097
:1036B0000D01F0900E01DC01CB018C199D09AE09C2
:1036C000BF09B7FF07C0B095A095909581959F4F12
:1036D000AF4FBF4FF10181879287A387B4872F8DAA
:1036E00038A12C5F3F4F38A32F8F49A15AA14C5FBF
:1036F0005F4F5AA349A309CF0E9494396B017C0103
:10370000F10165A376A387A390A785859685A785F4
:10371000B089892B8A2B8B2B09F4FFC120E030E084
:10372000A901612F702F8B8D9C8D0E94C93687FD5A
:1037300022C0F8A5FF2361F0A7019601612F702F29
:103740008B8D9C8D0E940739162F072F8B8F9C8F96
:1037500020E030E040E85FE3612F702F8B8D9C8D7F
:103760000E94C93687FF0DC010E000E040E84B8F93
:103770005FE35C8F06C019E906E726E92B8F3EE779
:103780003C8FA701960160E070E080E89FE30E9413
:10379000D0366BA77CA78DA79EA78FE091E09AA358
:1037A00089A3EDE8F6E0F8A3EF8F9E01235F3F4F7A
:1037B0003A8F298FAE014F5F5F4F5E8F4D8FC12CC7
:1037C000D12C7601ED8DFE8D80809180A280B3801A
:1037D00020E030E0A901C501B4010E94C936882368
:1037E00009F47FC02BA53CA54DA55EA5C501B4017C
:1037F0000E9407394B015C01ED8DFE8D6083718362
:10380000828393839B01AC0160E070E080E89FE3DA
:103810000E94D0362B013C01E89477F8EF8DF8A197
:103820002081318142815381C301B2010E94073955
:103830006BA37EA388A79DA39B01AC01612F702F72
:103840008B8D9C8D0E94C93687FF06C01BA30EA3DB
:10385000FB8DF8A72C8D2DA3F101F1A1FB8FF101B8
:10386000F2A1FC8FF101F3A1F9A7F101F4A1FAA7EC
:10387000EF8DF8A12485358546855785C301B201B2
:103880000E9407393B018C019B01AC016B8D7C8D43
:1038900089A59AA50E94C93687FF04C06B8C7C8CD1
:1038A00009A51AA5C301D801F10181A392A3A3A37D
:1038B000B4A3E9A1FAA12081318142815381C501DC
:1038C000B4010E9407399B01AC01C701B6010E94F7
:1038D000EF356B017C011BA10EA1F8A5FB8F2DA17B
:1038E0002C8F4D8D5E8D4C5F5F4F5E8F4D8F89A10C
:1038F0009AA104969AA389A3EF8DF8A13496F8A310
:10390000EF8F298D3A8D4217530709F05BCF9091C5
:10391000210180912201981306C0F101118A128AB7
:10392000138A148A0BC02FEE3FEF4FE75FE3C70106
:10393000B6010E94CC38181634F4F101118E128EA3
:10394000138E148E5BC02FEE3FEF4FE75FEBC70186
:10395000B6010E94CC38181644F03FEEC32EDD2489
:10396000DA943FE7E32E3FEBF32EA701960160E0E8
:1039700070E080E89FE30E94EF3520E030E040E017
:103980005FE30E9407390E9494396B017C0120910A
:10399000B6063091B7064091B8065091B906F101CC
:1039A00061A172A183A194A10E940739A701960188
:1039B0000E9407394B015C01A701960160E070E0AD
:1039C00080E89FE30E94EF359B01AC01C501B40183
:1039D0000E94D0366B017C0120E030E0A9010E94FA
:1039E000C93687FF04C0C12CD12CE12CF12CA601D3
:1039F000B701F101418F528F638F748F212F302FC8
:103A00004B8D5C8D612F702F8B8D9C8D0E940739A3
:103A1000162F072FF82EE92E862F902FAF2DBE2DB3
:103A2000F101858F968FA78FB0A3A18CB28CC38C28
:103A3000D48C60901B0170901C0180901D019090AF
:103A40001E019301A401612F702F8F2D9E2D0E94C6
:103A5000C93687FD0BC09301A401B501C6010E94C0
:103A6000C93687FD11C0530164010EC0212F302FCC
:103A70004F2D5E2DB501C6010E94C93687FD04C0D9
:103A8000A12EB02ECF2CDE2CC501D601F101858BE5
:103A9000968BA78BB08F8CE0FE013196AFE0B1E042
:103AA00001900D928A95E1F7812F902FAF2DBE2DB9
:103AB00080931B0190931C01A0931D01B0931E01E4
:103AC0008CE0FE013D96A3E0B1E001900D928A9555
:103AD000E1F780912001809321018F5F823109F409
:103AE00080E080932001AF960FB6F894DEBF0FBE42
:103AF000CDBFDF91CF911F910F91FF90EF90DF909D
:103B0000CF90BF90AF909F908F907F906F905F907D
:103B10004F903F902F900C945518AF960FB6F89495
:103B2000DEBF0FBECDBFDF91CF911F910F91FF90F0
:103B3000EF90DF90CF90BF90AF909F908F907F904D
:103B40006F905F904F903F902F9008954F925F92AB
:103B50006F927F928F929F92AF92BF92CF92DF929D
:103B6000EF92FF92CF93DF9300D000D0CDB7DEB7B6
:103B70004090A6055090A7056090A8057090A905F3
:103B80008090AA059090AB05A090AC05B090AD05D3
:103B90008091AE059091AF05A091B005B091B105AF
:103BA00089839A83AB83BC83C301B201680D791DFD
:103BB0008A1D9B1D42E0C42ED12CE12CF12CA701C3
:103BC00096010E94223A209303013093040140930E
:103BD000050150930601C301B201681979098A09E8
:103BE0009B09A70196010E94223A20930701309376
:103BF00008014093090150930A0189819A81AB81A0
:103C0000BC8180930B0190930C01A0930D01B093A4
:103C10000E010F900F900F900F90DF91CF91FF90BA
:103C2000EF90DF90CF90BF90AF909F908F907F905C
:103C30006F905F904F9008958091210190912201A3
:103C4000891708F48E5E891B08950E94302D80919B
:103C5000220180931F010C945518CF93DF93EC0140
:103C60008991882319F00E942026FACFDF91CF9105
:103C70000895CF93DF93FC018491EF01219688236F
:103C800021F00E942026FE01F7CFDF91CF91089509
:103C9000EF92FF920F931F93CF93DF931F92CDB7B5
:103CA000DEB7262FEDB6FEB66DB77EB7641B710981
:103CB0000FB6F8947EBF0FBE6DBF0DB71EB70F5F76
:103CC0001F4F302FF8019E2F931B941728F4622F5B
:103CD0000E94F4399193F7CF442361F0F801E40F87
:103CE000F11D31978081805D49830E9420264981A2
:103CF0004150F2CF0FB6F894FEBE0FBEEDBE0F904E
:103D0000DF91CF911F910F91FF90EF90089548E0C0
:103D100062E00C94481E8A3020F0843620F442E0A1
:103D200003C041E001C043E06AE00C94481E8F925A
:103D30009F92AF92BF92CF92DF92EF92FF920F933A
:103D40001F93CF93DF93CDB7DEB72A970FB6F894C2
:103D5000DEBF0FBECDBF6B017C01142F20E030E031
:103D6000A9010E94C93687FF07C08DE20E94202664
:103D7000F7FAF094F7F8F094012F023060F020E0A9
:103D800030E048EC52E4C701B6010E9407396B01EC
:103D90007C010250F2CF10FF0AC020E030E040E288
:103DA00051E4C701B6010E9407396B017C0120E094
:103DB00030E040E05FE3C701B6010E94F0350E94A9
:103DC0003837E1E0F0E0EC0FFD1FE10FF11D2EE2CE
:103DD0002083D12C5AE0852E912CA12CB12C611579
:103DE000710581059105A9F0D11201C0D394EE248B
:103DF000E394F12CEC0EFD1EED0CF11CA5019401D9
:103E00000E94003A605DF7016083B901CA01D39452
:103E1000E6CF80E3D11648F4E1E0F0E0EC0FFD1FBF
:103E2000ED0DF11D8083D394F5CF8D2DD1120BC0F4
:103E3000D394D3948F5FE1E0F0E0EC0FFD1FE80F27
:103E4000F11D80E38083DD2041F0FE01ED0DF11DC9
:103E500080810E942026DA94F6CF2A960FB6F89435
:103E6000DEBF0FBECDBFDF91CF911F910F91FF90AD
:103E7000EF90DF90CF90BF90AF909F908F9008957C
:103E80002091BE0620FF08C02BE832E441E25DE34A
:103E90000E94073944E001C043E00C94971E209132
:103EA000BE0620FF08C02BE832E441E25DE30E9439
:103EB000073941E001C040E00C94971E43E00C94A8
:103EC000971E3D98459A08951092C0059091BE06A0
:103ED00097FD03C090E29093C005882331F0809154
:103EE000C00590E289278093C005089586B180724D
:103EF0009091C00589270895809102018130A1F435
:103F00000E94761F882381F0109202018CE0E6EA7D
:103F1000F5E0A2EBB5E001900D928A95E1F7809172
:103F200001018064809301010895EF92FF920F9345
:103F30001F93CF93DF93D1E008E080E2F82E10E1E9
:103F400090E4E92EC0910001CC2389F1D093A30520
:103F5000C1FF02C081E00FC0C2FF02C082E00BC0FF
:103F6000C3FF02C083E007C0C4FF02C084E003C0F7
:103F7000C5FF03C085E00E94A521C0FD08C08FB722
:103F8000F89490910001109200018FBF10C081E061
:103F90000E94CF219FB7F894809101018F7E80937A
:103FA00001019FBF8091010184FFFCCFE8CFC09148
:103FB0000101CC2309F4C0C0C4FF04C081E0809398
:103FC000A205D2C0C0FF0AC00E9402259FB7F89484
:103FD000809101018E7F809301019FBF8C2F887695
:103FE00009F43CC08091A305882349F0982F9C7761
:103FF00069F1883021F40E94302DD093A40580917E
:10400000A305811103C092E09093A405C6FF09C0E7
:10401000883011F4E092A3058091A4058860809314
:10402000A405C3FF05C08091A30585FF1093A305D8
:10403000C5FF0CC086E00E94CF218091A40581FDC0
:10404000C46084608093A405F092A3059FB7F894A0
:10405000809101018779809301019FBFC1FF48C012
:104060008C2F8876E9F58091A305882331F080753F
:10407000B9F18091A40581FF33C08091A40582FF2E
:104080001CC080913305882371F040913405509114
:10409000350560913605709137050E94A92980EA9F
:1040A0009FE00E94241880913205882331F00E94FD
:1040B0003F0488EE93E00E9424180E949519892BF2
:1040C00059F08091A40583FD07C00093A3050E94C9
:1040D000522D0E942C2A02C01092A3051092A40512
:1040E0009FB7F894809101018D7F809301019FBF5C
:1040F000C2FF22C08091A305807391F08091A50535
:1041000081110EC08091A40582FF04C00E949F29E6
:104110000E943A048091A40582608093A40504C0A3
:104120001092A4051092A3059FB7F8948091010105
:104130008B7F809301019FBF8091A3058C7711F045
:104140000E94522D8091A305803251F48091A405E4
:1041500081FF06C00E94E733811102C01093A305BE
:104160008091A4058111EECEDF91CF911F910F9127
:10417000FF90EF9008959FB7F894809101018260BD
:10418000809301019FBF0895CF93DF930E94FE218A
:104190008091A305813021F482E00E94CF212FC0BD
:1041A0000E94E733882341F080910101806280936F
:1041B00001010E94951F02C01092A30585E094E0C2
:1041C0000E94E9331CC08D3079F0DD2399F18932EA
:1041D00021F4D13009F04CC0D0E00E9466268F3F18
:1041E00009F448C08A3079F7EC2FF0E0EB5FFB4F21
:1041F00010820E94951F8091A205882311F0C0E0D3
:10420000EBCF80910504811103C00E945721F7CFA5
:10421000843229F485E094E00E940834F6CF80913E
:10422000A305813011F489E0F0CF85E094E00E948D
:104230002005EBCF813288F28F3279F28832B1F0EB
:104240008B33B1F0CF3428F08BE00E945721C0E0CF
:10425000C4CF2C2F30E0CF5F9FE9980FF901EB5FBF
:10426000FB4F9A3108F480528083B7CFD1E0B5CFAD
:10427000D2E0B3CF0E94BB200E94951F8091A2057F
:10428000882309F4AACFDF91CF9108950E94BB2023
:104290000E94951F8091A205811108C00E94951966
:1042A000892BB1F78091A305883091F30895CF93BE
:1042B000C82F811103C086E498E044C08EE398E0E3
:1042C0000E94391E4C2F50E0FA013197E631F1057A
:1042D00080F5E75AFF4F0C94413A86E298E002C01D
:1042E00084E198E00E94391E2BC082E098E0FACF6A
:1042F00088EF97E0F7CF87EE97E0F4CF88ED97E06F
:10430000F1CF87EB97E0EECF8EEA97E0EBCF83EA31
:1043100097E0E8CF80E997E0E5CF82E897E0E2CF49
:104320008CE697E0DFCF88E597E0DCCF84E497E088
:10433000D9CF82E397E00E94391E8C2F0E948B1EFA
:104340008FE297E0CF910C94391ECF93C82F87E26C
:1043500097E00E94391EC33091F03CF4C13061F007
:10436000C230A1F481E197E00FC0C43059F0C530EC
:1043700069F487EE96E008C08CE197E005C08EEF07
:1043800096E002C083EF96E00E94391E84EE96E02C
:104390000E94391E84EF91E0CF910C942418CF93A2
:1043A000C82F82EE96E00E94391E8C2F90E0FC010F
:1043B0003197E830F105E8F4E159FF4F0C94413AA8
:1043C00080ED96E014C08CEB96E011C08AEA96E08E
:1043D0000EC082EA96E00BC089E996E008C08EE83C
:1043E00096E005C086E896E002C083E796E00E946A
:1043F000391E8FE696E0CF910C94391E82E596E047
:104400000C94391E8EE095E00C94391EFF920F93A8
:104410001F93CF93DF938AE095E00E94391E80912D
:10442000B1060E948B1E81EF94E00E94391E80919C
:10443000B4060E948B1E83ED94E00E94391E809189
:10444000B2060E948B1E8AEB94E00E94391E809176
:10445000B2060E94871E83EB94E00E94391E809171
:10446000B3060E948B1E8BE994E00E94391E809156
:10447000B3060E94871E84E994E00E94391E809151
:10448000BE0682FB882780F90E948B1E83E794E09A
:104490000E94391E8091BE0686FB882780F90E9403
:1044A0008B1E83E594E00E94391E8091BE06881F12
:1044B0008827881F0E948B1E83E394E00E94391E88
:1044C0008091B5060E948B1E8DE194E00E94391EFA
:1044D0008091B5060E94871E85E194E00E94391EF6
:1044E0006091B6067091B7068091B8069091B906B2
:1044F0000E945E1F85EF93E00E94391E6091BA060C
:104500007091BB068091BC069091BD060E945E1F13
:104510008AED93E00E94391E8091BE0681700E9450
:104520008B1E8DEB93E00E94391E8091BE0685FBA9
:10453000882780F90E948B1E82EA93E00E94391E30
:104540008091BE0683FB882780F90E948B1E87E836
:1045500093E00E94391E8091BE06829581700E9470
:104560008B1E8BE693E00E94391E8091BF060E944D
:104570008B1E81E593E00E94391E8091BF060E9448
:10458000871E89E493E00E94391E6091C0067091F5
:10459000C1068091C2069091C3060E945E1F8CE204
:1045A00093E00E94391E6091C4067091C506809107
:1045B000C6069091C7060E945E1F8FE093E00E949E
:1045C000391E8091C8060E948B1E80EF92E00E94E7
:1045D000391E6091CA067091CB068091CC069091ED
:1045E000CD060E945E1F87ED92E00E94391E84E690
:1045F000F82E10E0C1E8D6E000E085ED92E00E94E0
:10460000391E802F8F0D0E948B1E83ED92E00E9439
:10461000391E123071F01330B9F0113029F0688171
:1046200079818A819B8117C06C857D858E859F8568
:1046300012C020E030E041E655E4688D798D8A8D26
:104640009B8D0E94D03607C08CA19DA1AEA1BFA1B9
:10465000BC01CD0190580E945E1F80ED92E00E9447
:10466000391E013029F0023031F08EEC92E005C0A5
:104670008CEC92E002C08AEC92E00E94391E12306B
:1046800051F0133059F0113019F080EC92E008C06D
:104690008EEA92E005C08DE992E002C08DE892E0DA
:1046A0000E94391E89E892E00E94391E0F5F24960D
:1046B000033009F0A2CF8AE0F80E1F5F8CE8F812F1
:1046C00099CFDF91CF911F910F91FF900895CF93D4
:1046D00083E892E00E94391EC0E06C2F82EB95E0E7
:1046E0000E9480350E94401FC23021F081E892E094
:1046F0000E94391ECF5FC33081F78FE792E00E949E
:10470000391E8091BE050E948B1E8BE792E0CF91EF
:104710000C94391EEF92FF920F931F93CF93DF9368
:10472000CDB7DEB72C970FB6F894DEBF0FBECDBF66
:10473000F12CBE016F5F7F4F8F2D0E9439288111B0
:1047400004C087E00E94572169C088E792E00E9478
:10475000391E86E0F81631F0E7E0FE1208C082E765
:1047600092E002C085E792E00E94391E04C086E311
:104770008F0D0E948B1E80E792E00E94391E8E01F1
:104780000F5F1F4FE12CF80161917191819191911F
:104790008F010E94401FF2E0EF1619F08EE692E0C2
:1047A00002C08AE692E00E94391EE39483E0E81298
:1047B000EACFF394E8E0FE12BCCF84E692E00E94D8
:1047C000391E09E515E0F12CF80161917191819193
:1047D00091918F010E94401FF2E0FF1619F082E6CE
:1047E00092E002C08EE592E00E94391EF39483E0CD
:1047F000F812EACF88E592E00E94391E60916505C3
:104800007091660580916705909168050E94401F30
:1048100084E592E00E94391E0E9467232C960FB611
:10482000F894DEBF0FBECDBFDF91CF911F910F91E6
:10483000FF90EF90089582E592E00E94391E8091EA
:104840002A05823091F038F4882361F08130A9F490
:104850008CE492E00CC0833069F0883071F482E41B
:1048600092E005C08FE492E002C089E492E00E94E9
:10487000391E0CC086E492E0FACF8DE392E00E94EC
:10488000391E80912A0582500E948B1E8AE392E095
:104890000E94391E809130058A5C0E948B1E809197
:1048A0002E05813049F028F0823051F48BE292E0FD
:1048B00005C085E392E002C080E392E00E94391EC9
:1048C00080912C05811103C086E292E002C081E252
:1048D00092E00E94391E80912D05811103C08CE168
:1048E00092E002C087E192E00E94391E80912B0580
:1048F000813019F482E192E002C08DE092E00E94E2
:10490000391E80913105813049F028F0823051F410
:1049100081E092E005C089E092E002C085E092E08B
:104920000E94391E80913305813031F040F0823091
:1049300051F489EF91E005C08DEF91E002C085EF61
:1049400091E00E94391E80913205882329F082303F
:1049500039F48DEE91E002C081EF91E00E94391EA2
:104960008AEE91E00E94391E80913C050E948B1EC8
:1049700087EE91E00E94391E6091380570913905EB
:1049800080913A0590913B050E944F1F84EE91E083
:104990000E94391E6091340570913505809136056D
:1049A000909137050E944F1F80EE91E00C94391EC4
:1049B0001F93CF93DF93182FEB018DED91E00E94B1
:1049C000391E812F0E948B1E8BED91E00E94391EB3
:1049D000CE010E942D1E88ED91E0DF91CF911F91B5
:1049E0000C94391ECF93DF93EC0188EC91E00E9488
:1049F000391ECE010E942D1E84EC91E0DF91CF91F3
:104A00000C94391EBF92CF92DF92EF92FF920F93D8
:104A10001F93CF93DF93CDB7DEB768970FB6F894A7
:104A2000DEBF0FBECDBF8CE0E6EAF5E0DE011D96ED
:104A300001900D928A95E1F78091A3058430E9F009
:104A400040F48130E9F080F0823009F58FE991E09F
:104A50001CC0803179F018F4883049F018C08032D9
:104A600091F0803421F013C08EEB91E00EC089EB01
:104A700091E00BC083EB91E008C08DEA91E005C0A6
:104A800086EA91E002C089E991E00E94391E809196
:104A9000B506837039F0BE01635F7F4FCE0101968A
:104AA0000E94D5358091B50680FD05C08091B50680
:104AB00081FF6DC01FC082E991E00E94391E6981AB
:104AC0007A818B819C810E94401F80E991E00E9445
:104AD000391E6D817E818F8198850E94401F80E9FB
:104AE00091E00E94391E69857A858B859C850E949C
:104AF000401FDCCF89E891E00E94391E9DE4E92E39
:104B000095E0F92E8E010F5F1F4FB12C6801F70160
:104B100061917191819191917F01208531854285CB
:104B200053850E94F0359B01AC01F80160817181D1
:104B3000828193810E94EF35F801608371838283C3
:104B40009383F2E0BF120FC0209165053091660596
:104B500040916705509168050E94EF35F801608328
:104B60007183828393830C5F1F4FF6016081718193
:104B7000828193810E94401FF2E0BF1621F087E8F6
:104B800091E00E94391EB39423E0B212BFCF80910E
:104B9000B50682FF08C081E891E00E94391E0E949C
:104BA0001C1E0E948B1E8091B50683FF08C08CE7F7
:104BB00091E00E94391E0E9401260E948B1E809166
:104BC000B50684FF0AC086E791E00E94391E0E9464
:104BD000770F43E062E00E94481E82E791E00E9466
:104BE000391E68960FB6F894DEBF0FBECDBFDF91B9
:104BF000CF911F910F91FF90EF90DF90CF90BF90DA
:104C000008959091570480915804891708F48058AA
:104C1000891B0895E0ECF0E080818260808310922F
:104C2000C50080E18093C400E1ECF0E08081806108
:104C300080838081886080838081806880830895FC
:104C4000E091560491E09E0F903409F490E0209199
:104C50005504921305C02091010124FFF8CF089557
:104C6000F0E0EF53FA4F8083909356048091C10097
:104C700080628093C10008951F920F920FB60F9229
:104C800011248F939F93EF93FF9380915504E82F06
:104C9000F0E0EF53FA4F90819093C6008F5F80341D
:104CA00009F480E08093550490915604891305C05F
:104CB0008091C1008F7D8093C100FF91EF919F9102
:104CC0008F910F900FBE0F901F90189590915704E1
:104CD00080915804891761F0E92FF0E0EF5FF94FF8
:104CE00080819F5F903809F490E090935704089575
:104CF0008FEF08951F920F920FB60F9211242F93EA
:104D00003F934F935F936F937F938F939F93AF9353
:104D1000BF93EF93FF938091C6008F33A9F050F4B7
:104D2000883109F1813211F59FB7F8948091010122
:104D3000886015C0803471F08E37C1F49FB7F89445
:104D40008091010182600BC09FB7F89480910101AE
:104D5000816005C09FB7F8948091010180628093C3
:104D600001019FBF14C00E94471711C0E091580471
:104D700091E09E0F903809F490E02091570492172B
:104D800031F0F0E0EF5FF94F808390935804FF918A
:104D9000EF91BF91AF919F918F917F916F915F91B3
:104DA0004F913F912F910F900FBE0F901F9018952C
:104DB0008091580480935704089521E5829FC00193
:104DC000112440E550E09D5F0C94850440E550E0DF
:104DD000BC018EEA93E00C9485042DE0829FC00113
:104DE00011244CE050E09E5F0C94850469E080E063
:104DF00090E00E9463044DE450E061E876E081E0D9
:104E000090E00C948504EF92FF920F931F93CF9341
:104E1000DF93CDB7DEB72C970FB6F894DEBF0FBE89
:104E2000CDBF182F80FFC1C08AE08093B10689E111
:104E30008093B4061092B2061092B30683E080937A
:104E4000B5068AE097EDA3E2BCE38093B6069093A3
:104E5000B706A093B806B093B9068FE692E1A3E037
:104E6000BBE38093BA069093BB06A093BC06B093B5
:104E7000BD061092BF0680E090E0A8ECB1E48093FC
:104E8000C0069093C106A093C206B093C30640E04B
:104E900050E06AEF73E44093C4065093C5066093F4
:104EA000C6067093C7068AEF90E09093C906809378
:104EB000C80680E090E0A0E8BFE38093CA06909324
:104EC000CB06A093CC06B093CD061092BE0680E030
:104ED00090E0AAE7B3E48093810690938206A093C2
:104EE0008306B09384068093850690938606A093EC
:104EF0008706B09388068093890690938A06A093CC
:104F00008B06B0938C0640938D0650938E0660936B
:104F10008F0670939006409391065093920660938B
:104F2000930670939406409395065093960660936B
:104F300097067093980640E050EA6CE077E440935F
:104F4000990650939A0660939B0670939C06409333
:104F50009D0650939E0660939F067093A006409313
:104F6000A1065093A2066093A3067093A40640E0A6
:104F700050E068E473EC4093A5065093A606609356
:104F8000A7067093A8064093A9065093AA066093BB
:104F9000AB067093AC064093AD065093AE0660939B
:104FA000AF067093B0060E94F62611FF10C0CE0126
:104FB00001967C018CE0F70111928A95E9F700E0F7
:104FC000B701802F0E94ED260F5F0830C9F712FF4E
:104FD0000AC060E080E093E00E94630460E081E545
:104FE00093E00E94630413FF05C060E08EEA93E043
:104FF0000E9463042C960FB6F894DEBF0FBECDBF9F
:10500000DF91CF911F910F91FF90EF9008951F9323
:10501000CF93DF93182FEB0181E5189FB001112486
:105020007D5F40E550E0CE010E94C304892B39F436
:105030001882BE01812F0E94DD2680E001C081E040
:10504000DF91CF911F910895CF93DF93EC0140E55D
:1050500050E06EEA73E00E94C304892B31F4188299
:10506000CE010E94E62680E001C081E0DF91CF9171
:1050700008951F93CF93DF93182FEB018DE0189FB6
:10508000B00111247E5F4CE050E0CE010E94C304C9
:10509000892B59F48CE0FE0111928A95E9F7BE0143
:1050A000812F0E94ED2680E001C081E0DF91CF9149
:1050B0001F91089580E090E00E945B04893059F4CC
:1050C0004DE450E061E070E081E896E00E94C304A6
:1050D00021E0892B09F420E0822F0895CF92DF92FE
:1050E000EF92FF92CF93DF93C82F6A017B0120E0FC
:1050F00030E0A901C701B6010E94C93687FDE6C0AC
:10510000C43608F445C02CE92C0F80E02330B8F5F4
:1051100030E0823079F0F901EE0FFF1FEE0FFF1F34
:10512000833011F1813019F0EF57F94F23C0E35765
:10513000F94F20C0E901CC0FDD1FCC0FDD1FC75692
:10514000D94F20E030E040E752E4C701B6010E94A9
:10515000073920E030E040E752E40E9407396883D5
:1051600079838A839B83AEC0EB55F94FF7FAF094AD
:10517000F7F8F094C082D182E282F382A3C08F5FFD
:105180002A3008F4A5C0843009F4A2C02A50BECF4A
:10519000C701B6010E94D5390E943D378C2F90E09F
:1051A0008C31910508F094C0FC01E958FF4F0C9434
:1051B000413A633008F48EC06093B10683C06093B7
:1051C000B40680C06093B20602C06093B3060E942A
:1051D000A62C78C08091BE06662311F0846007C0BB
:1051E0008B7F05C08091BE06662321F0806480938A
:1051F000BE0668C08F7BFBCF8091BE06662311F090
:105200008068F5CF8F77F3CF6093B5065BC0C0920F
:10521000B606D092B706E092B806F092B90652C030
:10522000C092BA06D092BB06E092BC06F092BD06D0
:1052300049C08091BE06662311F08160D8CF8E7F71
:10524000D6CF8091BE06662321F084FF45C08062E0
:10525000CECF8F7DCCCF8091BE06662311F08860C3
:1052600001C0877F8093BE060E94600F2BC0809193
:10527000BE06662311F08061BACF8F7CB8CF6093F1
:10528000BF0620C0C092C006D092C106E092C206FE
:10529000F092C30617C0C092C406D092C506E09231
:1052A000C606F092C7060EC070E07093C906609300
:1052B000C80608C0C092CA06D092CB06E092CC06BF
:1052C000F092CD060E94F62680E007C084E005C07B
:1052D00083E003C086E001C08AE0DF91CF91FF90B8
:1052E000EF90DF90CF9008950E945A28811108C056
:1052F00087E00E9457218FEF0E9403270C9406221B
:105300000895882321F0813021F488E0089584E015
:10531000089580E10895882321F0813021F480E40C
:10532000089580E2089580E80895882321F081306F
:1053300021F484E0089582E0089580E10895E0EB8F
:10534000F0E080818F7780830895239A259A0C94CA
:105350009F29CF92DF92EF92FF926A017B01811128
:1053600006C0FF90EF90DF90CF900C949F29813082
:1053700011F42D9801C02D9A83E88093B00080919C
:10538000B100887F82608093B10020E030E0A90105
:10539000C701B6010E94C93618161CF720E030E09C
:1053A000A901C701B6010E94C93687FD11C020E0DE
:1053B00030E04AE754E4C701B6010E94CC38181621
:1053C00054F4C12CD12C8AE7E82E84E4F82E03C0D3
:1053D000C12CD12C76012CE53FE842E85EE3C70101
:1053E000B6010E94073920E030E040E05FE30E9410
:1053F000F0350E94A6370E943D376093B300FF90BE
:10540000EF90DF90CF900895CF93DF9300D000D03E
:105410001F92CDB7DEB79091A3059230A9F04A83D1
:105420005B836C837D8389830E9446214A815B81F3
:105430006C817D8189810F900F900F900F900F905C
:10544000DF91CF910C94A9290F900F900F900F909E
:105450000F90DF91CF9108958091BE0682FF02C028
:10546000289A01C028988091A3058C70A1F08091A2
:10547000890480939D0480918A0480939C04809188
:10548000B106880F8450819580939B0480916F00B2
:10549000826080936F00089580916F008D7F80936C
:1054A0006F0080918100887F8160809381001092DD
:1054B00088048091B4068F3F21F4909100019923D4
:1054C00049F09091A305943029F090E00E942418AF
:1054D00081E001C080E09091BE0692FF02C091E0A1
:1054E0008927882311F0289A0895289808951F92F3
:1054F0000F920FB60F9211242F933F934F935F9308
:105500006F937F938F939F93AF93BF93CF93DF93CB
:10551000EF93FF93809188048111EFC19BB180913B
:105520009D04807E9F71892B8BB98BB1837E909176
:105530009C04892B8BB980919B0486BD82E085BD3C
:1055400081E08093880478948091AF049091B004B6
:10555000892B09F0A4C080918D0490918C04981738
:1055600009F492C0E0918D0486E0E89FF0011124D7
:10557000EF54FB4FF093B004E093AF048381948128
:105580009093890080938800808191819093AB04EF
:105590008093AA04A2818091AC048A1771F1A09330
:1055A000AC0481E1A89FD0011124AB52BB4FB09352
:1055B000AE04A093AD041D968D919D910D90BC916C
:1055C000A02DB695A795979587958093960490936F
:1055D0009704A0939804B0939904809392049093B5
:1055E0009304A0939404B093950480938E049093B5
:1055F0008F04A0939004B0939104C091AD04D09116
:10560000AE04809189049881892780939D04258127
:1056100089819A81AB81BC81022E04C0B695A79581
:10562000979587950A94D2F780939E0490939F0450
:10563000A093A004B093A1048D819E81AF81B88511
:10564000022E04C0B695A795979587950A94D2F730
:105650008093A2049093A304A093A404B093A50400
:1056600089859A85AB85BC8504C0B695A795979525
:1056700087952A95D2F78093A6049093A704A093C8
:10568000A804B093A9040BC00E944C2A9FB7F894B9
:10569000809101018460809301019FBF2EC10E940F
:1056A0007C1F10929C0480919E0490919F04A09175
:1056B000A004B091A10440918E0450918F04609198
:1056C000900470919104840F951FA61FB71F8093BB
:1056D0008E0490938F04A0939004B0939104E09172
:1056E000AD04F091AE0445855685678570894817ED
:1056F00059076A077B0768F524E020939C044585D9
:10570000568567857089841B950BA60BB70B809314
:105710008E0490938F04A0939004B0939104208101
:105720008091A6059091A705A091A805B091A90523
:1057300025FF04C00197A109B10903C00196A11D6D
:10574000B11D8093A6059093A705A093A805B093DB
:10575000A9058091A2049091A304A091A404B09102
:10576000A504409192045091930460919404709127
:105770009504840F951FA61FB71F809392049093E2
:105780009304A0939404B09395044585568567854A
:105790007089481759076A077B0778F520919C04A0
:1057A000286020939C044585568567857089841BF5
:1057B000950BA60BB70B8093920490939304A09340
:1057C0009404B093950420818091AA059091AB0533
:1057D000A091AC05B091AD0526FF04C00197A109C9
:1057E000B10903C00196A11DB11D8093AA05909334
:1057F000AB05A093AC05B093AD058091A604909144
:10580000A704A091A804B091A904409196045091D6
:1058100097046091980470919904840F951FA61FB6
:10582000B71F8093960490939704A0939804B09325
:1058300099044585568567857089481759076A0711
:105840007B0778F520919C04206120939C0445857A
:10585000568567857089841B950BA60BB70B8093C3
:10586000960490939704A0939804B0939904208190
:105870008091AE059091AF05A091B005B091B105B2
:1058800027FF04C00197A109B10903C00196A11D1A
:10589000B11D8093AE059093AF05A093B005B09372
:1058A000B1058091A305843039F48091BF059091B2
:1058B0009C04892380939C048091AA049091AB045A
:1058C00001979093AB048093AA04892B69F41092FA
:1058D000B0041092AF0480918D048F5F80938D048B
:1058E000863011F410928D0480918A0490919C046A
:1058F000892780939C0410928804FF91EF91DF9197
:10590000CF91BF91AF919F918F917F916F915F9157
:105910004F913F912F910F900FBE0F901F901895B0
:105920001F920F920FB60F9211248F939F939BB1EA
:1059300080918A048C71937E892B8BB915BC9F91C1
:105940008F910F900FBE0F901F901895FF920F939D
:105950001F93CF93DF9310928A0410928904C0E0C2
:10596000D0E00C2F1C2F2091B20630E08C2F0C2E93
:1059700002C0359527950A94E2F720FF07C0F09002
:105980008A040E9481298F2980938A042091B3067A
:1059900030E002C0359527951A95E2F720FF08C040
:1059A00010918904802F0E948B29812B8093890478
:1059B0002196C330D105A9F6DF91CF911F910F91A8
:1059C000FF9008950E944C2A8BE2E9E5F4E0DF01A4
:1059D0001D928A95E9F783E2EEE8F4E0DF011D927B
:1059E0008A95E9F7109287041092860410928D042C
:1059F00010928C0481E080938B04109288040E94A2
:105A0000A62C8BB1837E90918A04892B8BB98BB1A4
:105A10008F7190918904892B8BB908958AB18C611B
:105A20008AB9209A8AB1806E8AB9E1E8F0E0808173
:105A30008F7E8083808188608083E0E8F0E08081D1
:105A40008C7F808380818F708083EEE6F0E08081A0
:105A5000887F808314BC15BC808181608083089519
:105A6000CF93DF93C0918604D09187042097B9F03B
:105A700081E080935A046091700470917104809168
:105A80007204909173049B01AC010E940739698BE9
:105A90007A8B8B8B9C8B1092870410928604DF91FB
:105AA000CF9108952F923F924F925F926F927F9283
:105AB0008F929F92AF92BF92CF92DF92EF92FF921E
:105AC0000F931F93CF93DF93CDB7DEB7E5970FB654
:105AD000F894DEBF0FBECDBF8091A305807709F497
